:100000000C9462000C948A000C948A000C948A0070
:100010000C948A000C948A000C948A000C948A0038
:100020000C948A000C948A000C948A000C94DA04D4
:100030000C948A000C948A000C948A000C948A0018
:100040000C9490040C948A000C945E040C94380474
:100050000C948A000C948A000C948A000C948A00F8
:100060000C949B050C948A000000000024002700DB
:100070002A0000000000250028002B0000000008D6
:10008000000201000003040700000000000000005F
:1000900000000000230026002900040404040404D6
:1000A0000404020202020202030303030303010227
:1000B00004081020408001020408102001020408F6
:1000C00010200E0711241FBECFEFD8E0DEBFCDBF3A
:1000D00011E0A0E0B1E0E8EAF8E102C005900D927D
:1000E000A63AB107D9F723E0A6EAB1E001C01D9214
:1000F000A333B207E1F710E0C2E6D0E004C02197D5
:10010000FE010E94470CC136D107C9F70E948A0739
:100110000C94520C0C940000AC0190912C039C3078
:1001200090F580912D0328E830E0281B310987FDE8
:100130003395220F331F220F331F4217530784F0CA
:1001400080912E0328E532E0281B310987FD339585
:10015000220F331F220F331F421753070CF49A014B
:1001600022503109220F331F4FB7F894892F90E0A6
:10017000FC01EE0FFF1F8E0F9F1FFC01E95FFC4F7C
:10018000328321834FBF0895E0915E02F0915F02B8
:100190000190F081E02D682F8EE592E00994CF92D6
:1001A000DF92EF92FF920F931F93CF93DF936C0137
:1001B0007A018B01C0E0D0E0CE15DF0589F0D801CF
:1001C0006D918D01D601ED91FC910190F081E02DB2
:1001D000C6010995892B11F47E0102C02196ECCF4E
:1001E000C701DF91CF911F910F91FF90EF90DF90AA
:1001F000CF900895FC01538D448D252F30E0842F3E
:1002000090E0821B930B541710F0CF96089501973E
:100210000895FC01918D828D981761F0828DDF0128
:10022000A80FB11D5D968C91928D9F5F9F73928FE9
:1002300090E008958FEF9FEF0895FC01918D828DDE
:10024000981731F0828DE80FF11D858D90E00895AB
:100250008FEF9FEF0895FC01918D228D892F90E003
:10026000805C9F4F821B91098F73992708958EE5BB
:1002700092E00E942B0121E0892B09F420E0822FDB
:100280000895FC01848DDF01A80FB11DA35ABF4F53
:100290002C91848D90E001968F739927848FA68985
:1002A000B7892C93A089B1898C9180648C93938DAC
:1002B000848D981306C00288F389E02D80818F7D9C
:1002C00080830895EF92FF920F931F93CF93DF9354
:1002D000EC0181E0888F9B8D8C8D981305C0E88997
:1002E000F989808185FD24C0F62E0B8D10E00F5F0B
:1002F0001F4F0F731127E02E8C8DE8120CC00FB624
:1003000007FCFACFE889F989808185FFF5CFCE0116
:100310000E944101F1CF8B8DFE01E80FF11DE35AE0
:10032000FF4FF0820B8FEA89FB898081806207C0D2
:10033000EE89FF896083E889F98980818064808300
:1003400081E090E0DF91CF911F910F91FF90EF90AE
:100350000895CF93DF93EC01888D8823C9F0EA8953
:10036000FB89808185FD05C0A889B9898C9186FDAE
:100370000FC00FB607FCF5CF808185FFF2CFA889AB
:10038000B9898C9185FFEDCFCE010E944101E7CF65
:10039000DF91CF91089580E090E0892B29F00E94B1
:1003A000370181110C940000089590E0FC01E4589D
:1003B000FF4F3491FC01E255FF4F2491FC01E656BA
:1003C000FF4FE491EE2309F43BC0332339F133307E
:1003D00091F038F43130A9F0323001F584B58F7DD9
:1003E00012C0373091F03830A1F03430B9F4809138
:1003F00080008F7D03C0809180008F778093800084
:100400000DC084B58F7784BD09C08091B0008F770F
:1004100003C08091B0008F7D8093B000F0E0EE0FBC
:10042000FF1FEE58FF4FA591B4918FB7F894EC9150
:10043000611103C020952E2301C02E2B2C938FBF5A
:100440000895CF93DF9390E0FC01E255FF4F249194
:10045000FC01E656FF4F8491882361F190E0880FFC
:10046000991FFC01E859FF4FC591D491FC01EE584A
:10047000FF4FA591B491611109C09FB7F89488818D
:10048000209582238883EC912E230BC0623061F487
:100490009FB7F8943881822F809583238883EC91CD
:1004A0002E2B2C939FBF06C08FB7F894E8812E2B7C
:1004B00028838FBFDF91CF9108953FB7F894809143
:1004C000170290911802A0911902B0911A0226B554
:1004D000A89B05C02F3F19F00196A11DB11D3FBF7C
:1004E000BA2FA92F982F8827820F911DA11DB11D0A
:1004F000BC01CD0142E0660F771F881F991F4A9506
:10050000D1F7089585ED8093BC008091BC0084FDF7
:10051000FCCF1092EF0108954091C901262F30E0E1
:10052000240F311D21323105DCF42091EF012430FC
:10053000C9F4FC0180E090E0861758F43091C901BD
:100540002191DC01A955BE4FA30FB11D2C9301963B
:10055000F3CF8091C901680F6093C90180E00895CD
:1005600081E0089582E0089508958FEF9FEF089548
:100570008FEF9FEF08958091A60190E0919581956E
:1005800091090895CF93DF9300D0CDB7DEB7CB01AB
:10059000642F49835A830E948C024981842F5A8197
:1005A000952F0F900F90DF91CF910895CF93DF9308
:1005B0001F92CDB7DEB7698361E0CE0101960E943C
:1005C0008C0281E090E00F90DF91CF910895089523
:1005D00080E090E00895009769F0FC010190002010
:1005E000E9F73197AF01481B590BBC018EE592E04A
:1005F0000C94CF0080E090E008958F929F92AF928C
:10060000BF920F931F93CF93DF93CDB7DEB7A19720
:100610000FB6F894DEBF0FBECDBF19A2423008F46A
:100620004AE08E010F5D1F4F842E912CA12CB12C1E
:10063000A50194010E944F0AE62FB901CA01015099
:100640001109EA3014F4E05D01C0E95CD801EC93D3
:10065000232B242B252B61F7C8010E94EB02A196C6
:100660000FB6F894DEBF0FBECDBFDF91CF911F91C3
:100670000F91BF90AF909F908F9008954F925F928F
:100680006F927F928F929F92AF92BF92CF92DF92A2
:10069000EF92FF926B017C019B01AC010E94360C32
:1006A000882319F084E291E01AC046015701E894CA
:1006B000B7F82FEF3FEF4FE75FE7C501B4010E94A6
:1006C000360C811110C02FEF3FEF4FE75FE7C501F8
:1006D000B4010E94DE0A181634F488E291E00E9408
:1006E000EB027C017FC02FEF3FEF4FE75FE4C701D4
:1006F000B6010E94C40B18161CF48CE291E0EFCFF7
:100700002FEF3FEF4FE75FECC701B6010E94DE0A13
:1007100087FDF3CF20E030E0A901C701B6010E94B8
:10072000DE0A87FF09C08DE20E94C4005C01F7FA6F
:10073000F094F7F8F09402C0A12CB12C2AE037ED28
:1007400043EA5BE3C701B6010E94720A2B013C0138
:100750000E94E30A6B017C010E94120B9B01AC0119
:10076000C301B2010E94710A2B013C014AE0C7019A
:10077000B6010E94FD027C01EA0CFB1C8EE20E9485
:10078000C400E80EF91E20E030E040E251E4C3016D
:10079000B2010E94C90B2B013C010E94E30A4B01EC
:1007A000A12CB12C4AE0C501B4010E94FD02E80E63
:1007B000F91EC501B4010E94120B9B01AC01C301DB
:1007C000B2010E94710A20E030E040E251E40E9450
:1007D000C90B0E94E30A80E090E04AE00E94FD021B
:1007E000E80EF91E80E391E00E94EB028E0D9F1D42
:1007F000FF90EF90DF90CF90BF90AF909F908F9041
:100800007F906F905F904F900895CF92DF92EF921C
:10081000FF92CF93DF936C01990FEE08FF08F7FE6C
:1008200012C08DE20E94C400EC0166277727CB013D
:100830006C197D098E099F094AE00E94FD027C0126
:10084000EC0EFD1E06C04AE0C701B6010E94FD0283
:100850007C0180E391E00E94EB028E0D9F1DDF91F1
:10086000CF91FF90EF90DF90CF9008950E944D0CB4
:100870001F920F920FB60F9211242F933F934F9315
:100880005F936F937F938F939F93AF93BF93EF93F8
:10089000FF938EE592E00E944101FF91EF91BF919D
:1008A000AF919F918F917F916F915F914F913F9108
:1008B0002F910F900FBE0F901F9018951F920F92BF
:1008C0000FB60F9211242F938F939F93EF93FF9363
:1008D000E0916E02F0916F028081E0917402F091DC
:1008E000750282FD12C09081809177028F5F8F73B5
:1008F00020917802821751F0E0917702F0E0E25AFD
:10090000FD4F958F8093770201C08081FF91EF9119
:100910009F918F912F910F900FBE0F901F90189560
:100920001F920F920FB60F9211242F933F938F9324
:100930009F93AF93BF938091230290912402A09143
:100940002502B09126023091160223E0230F2D37A5
:1009500020F40196A11DB11D05C026E8230F0296C3
:10096000A11DB11D209316028093230290932402AF
:10097000A0932502B093260280911702909118024D
:10098000A0911902B0911A020196A11DB11D809388
:10099000170290931802A0931902B0931A02BF9104
:1009A000AF919F918F913F912F910F900FBE0F901C
:1009B0001F9018951F920F920FB60F9211242F932C
:1009C0003F934F935F936F937F938F939F93AF93D7
:1009D000BF93EF93FF938091150287FF05C010929C
:1009E0008500109284001BC020911502022E000C7D
:1009F000330B80912B0390E02817390784F4809102
:100A00001502082E000C990BFC01EE0FFF1F8E0F34
:100A10009F1FFC01E95FFC4F808186FD15C080911E
:100A200015028F5F8093150220911502022E000C93
:100A3000330B80912B0390E028173907C4F4809181
:100A400015028C3064F113C080911502082E000C41
:100A5000990BFC01EE0FFF1F8E0F9F1FFC01E95F3A
:100A6000FC4F808160E08F730E94D501D8CF8091C8
:100A7000840090918500049680349C4918F480E4A9
:100A80009CE905C080918400909185000496909324
:100A90008900809388008FEF809315023BC02091DE
:100AA00084003091850080911502082E000C990B6E
:100AB000FC01EE0FFF1F8E0F9F1FFC01E95FFC4F33
:100AC00081819281820F931F909389008093880087
:100AD00080911502082E000C990BFC01EE0FFF1FF0
:100AE0008E0F9F1FFC01E95FFC4F808186FF12C0C3
:100AF00080911502082E000C990BFC01EE0FFF1FD0
:100B00008E0F9F1FFC01E95FFC4F808161E08F73B6
:100B10000E94D501FF91EF91BF91AF919F918F916D
:100B20007F916F915F914F913F912F910F900FBEE9
:100B30000F901F9018951F920F920FB60F921124CD
:100B40002F933F934F935F936F937F938F939F93D5
:100B5000AF93BF93EF93FF938091B900887F803666
:100B600009F49CC068F5883209F45BC090F48031C8
:100B700009F454C038F4882309F4F6C0883009F425
:100B80004DC0F6C0883109F44CC0803209F45DC014
:100B9000EFC0803409F468C048F4803309F455C0CC
:100BA000883309F0E5C08093EE01D8C0803509F4A0
:100BB0004FC0883509F45DC0883409F0D9C0D6C06B
:100BC000883909F4C7C0A8F4883709F467C038F435
:100BD000883609F463C0803709F460C0C9C088381A
:100BE00009F4B8C0803909F45FC0803809F0C0C08A
:100BF0005BC0803B09F486C038F4803A09F466C0D3
:100C0000883A09F47FC0B4C0803C09F4A7C0883C8E
:100C100009F4A4C0883B09F48AC0AAC080911402D8
:100C200010C09091130280911202981770F5E09114
:100C3000130281E08E0F80931302F0E0EE50FE4F1E
:100C400080818093BB0085EC86C08093EE018EC0CE
:100C5000E091130281E08E0F809313028091BB001C
:100C6000F0E0EE50FE4F80839091130280911202CB
:100C70006EC0E091130281E08E0F80931302809189
:100C8000BB00F0E0EE50FE4F80838091F1018111B6
:100C90006DC081E08093F00184EA61C083E08093BD
:100CA000EF011092ED01CFCF8091ED01803208F07D
:100CB00051C0E091ED0181E08E0F8093ED018091B4
:100CC000BB00F0E0E353FE4F8083BDCF85EC809303
:100CD000BC001092EF018091ED01803230F4E09180
:100CE000ED01F0E0E353FE4F10826091ED0170E002
:100CF000E091CB01F091CC018DEC91E0099510923F
:100D0000ED0136C084E08093EF011092CA01109289
:100D1000C901E091C701F091C80109958091C9010D
:100D2000811105C081E08093C9011092A701E09173
:100D3000CA0181E08E0F8093CA01F0E0E955FE4FB1
:100D400080818093BB009091CA018091C90198175E
:100D500008F479CF85E88093BC000AC085EC8093C5
:100D6000BC001092EF0104C01092EE010E948202BA
:100D7000FF91EF91BF91AF919F918F917F916F9173
:100D80005F914F913F912F910F900FBE0F901F9049
:100D90001895CF92DF92EF92FF920F931F93E82F57
:100DA000F92F05C0015011092109310961F1908124
:100DB00096239417B9F305C001501109210931098F
:100DC00011F1908196239413F7CFC12CD12CE12CF3
:100DD000F12C0AC08FEFC81AD80AE80AF80A0C15D5
:100DE0001D052E053F0579F080818623841791F338
:100DF0006C2D7D2D8E2D9F2D1F910F91FF90EF90CB
:100E0000DF90CF90089560E070E080E090E01F9167
:100E10000F91FF90EF90DF90CF90089510926102B4
:100E20001092600288EE93E0A0E0B0E0809362024E
:100E300090936302A0936402B093650224E031E0D2
:100E400030935F0220935E0225EC30E030936B021A
:100E500020936A0224EC30E030936D0220936C0200
:100E600020EC30E030936F0220936E0221EC30E0F2
:100E7000309371022093700222EC30E030937302C1
:100E80002093720226EC30E03093750220937402B6
:100E900010927702109278021092790210927A02E0
:100EA0001092FE021092FD028093FF0290930003C5
:100EB000A0930103B093020386E191E09093FC02BA
:100EC0008093FB0280E797E1A0E0B0E080932F03DE
:100ED00090933003A0933103B093320380912B039E
:100EE0008C30A0F491E0980F90932B0380932C0307
:100EF00090E0FC01EE0FFF1F8E0F9F1FFC01E95FCA
:100F0000FC4F88EB9BE09283818308958FEF809361
:100F10002C030895789484B5826084BD84B5816083
:100F200084BD85B5826085BD85B5816085BD8091B4
:100F30006E00816080936E0010928100809181002C
:100F40008260809381008091810081608093810024
:100F5000809180008160809380008091B1008460E6
:100F60008093B1008091B00081608093B000809147
:100F70007A00846080937A0080917A008260809306
:100F80007A0080917A00816080937A0080917A0063
:100F9000806880937A001092C100E0916E02F09117
:100FA0006F0282E08083E0916A02F0916B0210820E
:100FB000E0916C02F0916D028FEC808310927602CA
:100FC000E0917202F091730286E08083E0917002FA
:100FD000F0917102808180618083E0917002F091D4
:100FE0007102808188608083E0917002F0917102CB
:100FF000808180688083E0917002F091710280812D
:101000008F7D808361E085E00E94210260E086E0C0
:101010000E94210280912C038C3008F051C061E0C5
:1010200082E00E94210280912C03E82FF0E09F01D2
:10103000220F331FE20FF31FE95FFC4F9081907C7A
:101040009260908310922D0310922E036CE00E9408
:101050003B0C2CE0829FB001112440E050E09A014B
:10106000260F371FF901EE0FFF1F2E0F3F1FF9014B
:10107000E95FFC4F908196FD16C04F5F5F4F4C308B
:10108000510569F781110FC01092800082E08093B2
:1010900081001092850010928400B19A80916F00B7
:1010A000826080936F00E0912C03F0E0CF01880F05
:1010B000991FE80FF91FE95FFC4F808180648083EE
:1010C0008CED95E00E948C0081E080932B0267E319
:1010D000262E312C7AE3472E512C612C712CC8E539
:1010E000D2E060E085E00E94D50183E090E00197C6
:1010F000F1F761E085E00E94D501C1010197F1F7A8
:1011000060E085E00E94D501E4EBF0E06491E0EA64
:10111000F0E08491E82FF0E0EE0FFF1FE057FF4F63
:101120008591949100E412E42FE030E0462F0E9474
:10113000C906611571058105910549F0DC01CB01F6
:101140000196A11DB11DBC01CD019F7003C060E0DF
:1011500070E0CB0160931F02709320028093210204
:1011600090932202A30192010E94300A20931B0255
:1011700030931C0240931D0250931E0222503109ED
:101180002831310550F4220F331FF901E05DFD4F86
:10119000808191810196918380838FB7F8944091EB
:1011A00023025091240260912502709126028FBF84
:1011B00080912F0390913003A0913103B0913203BD
:1011C00084179507A607B70700F120E030E048EC48
:1011D00052E460912C0270912D0280912E02909128
:1011E0002F020E94C40B18160CF011C180912E031F
:1011F000FE01E81BF10987FDF395CF01880F991FC8
:10120000880F991F0E948C0002C14AE066E070E0DE
:1012100080E090E00E94FD0283E391E00E94EB02F7
:1012200080E391E00E94EB0280912F0390913003C4
:10123000A0913103B09132038059984EAF4FBF4F08
:1012400080932F0390933003A0933103B093320324
:1012500080912B02882301F1E0E3F2E020E030E00E
:1012600040E050E080E090E06191719146175707AF
:1012700024F49C012E5F3F4FAB010196873191050D
:1012800099F730932A022093290230932802209361
:10129000270210922B0221C08091290290912A02EC
:1012A0009093280280932702E0E3F2E020E030E010
:1012B00040E050E080E090E061917191461757075F
:1012C00024F49C012E5F3F4FAB01019687319105BD
:1012D00099F730932A022093290287E491E00E9433
:1012E000EB0280912702909128020E9405048DE56F
:1012F00091E00E94EB028091290290912A020E94C3
:10130000050482E791E00E94EB02C0902C02D0908D
:101310002D02E0902E02F0902F022FE43BE74FE7E2
:101320005FE3C701B6010E94C90B9B01AC01C70175
:10133000B6010E94710A0E943E032FE43BE74FE78B
:101340005FE360912C0270912D0280912E029091AA
:101350002F020E94C90B4B015C0160932C02709319
:101360002D0280932E0290932F026091290270919A
:101370002A0280912702909128028617970764F528
:10138000681B790B072E000C880B990B0E94140B1D
:1013900024E230EF49E151E40E94C90B2EE432E629
:1013A00040E35FE30E94C90B6B017C019B01AC0130
:1013B000C501B4010E94720A60932C0270932D0241
:1013C00080932E0290932F0282E891E00E94EB021C
:1013D000C701B6010E943E0381E991E00E94EB0241
:1013E00060912C0270912D0280912E0290912F021B
:1013F0000E943E0380E391E00E94EB02E0E3F2E012
:101400001192119222E0EE35F207D1F7DECE0E9462
:101410005D024B015C0184E6C82ED12CE12CF12C3D
:101420000E945D02DC01CB0188199909AA09BB0958
:10143000883E9340A105B10558F0F1E0CF1AD108DC
:10144000E108F10828EE820E23E0921EA11CB11CD7
:10145000C114D104E104F10419F70E94CB0141CE7B
:10146000052E97FB1EF400940E94470A57FD07D0F3
:101470000E944F0A07FC03D04EF40C94470A509583
:101480004095309521953F4F4F4F5F4F0895909570
:101490008095709561957F4F8F4F9F4F0895A1E282
:1014A0001A2EAA1BBB1BFD010DC0AA1FBB1FEE1FDE
:1014B000FF1FA217B307E407F50720F0A21BB30B29
:1014C000E40BF50B661F771F881F991F1A9469F7A5
:1014D00060957095809590959B01AC01BD01CF0101
:1014E00008955058BB27AA270E94890A0C948A0B9A
:1014F0000E947C0B38F00E94830B20F039F49F3F50
:1015000019F426F40C94790B0EF4E095E7FB0C9497
:10151000730BE92F0E949B0B58F3BA1762077307EE
:101520008407950720F079F4A6F50C94BD0B0EF412
:10153000E0950B2EBA2FA02D0B01B90190010C01E3
:10154000CA01A0011124FF27591B99F0593F50F4FB
:10155000503E68F11A16F040A22F232F342F442753
:10156000585FF3CF469537952795A795F04053954B
:10157000C9F77EF41F16BA0B620B730B840BBAF01B
:101580009150A1F0FF0FBB1F661F771F881FC2F786
:101590000EC0BA0F621F731F841F48F4879577959A
:1015A0006795B795F7959E3F08F0B0CF9395880F54
:1015B00008F09927EE0F9795879508950E944F0B95
:1015C00008F481E008950E94A30B88F09F5798F0DB
:1015D000B92F9927B751B0F0E1F0660F771F881F38
:1015E000991F1AF0BA95C9F714C0B13091F00E9452
:1015F000BD0BB1E008950C94BD0B672F782F8827A1
:10160000B85F39F0B93FCCF3869577956795B39578
:10161000D9F73EF490958095709561957F4F8F4FE7
:101620009F4F0895E89409C097FB3EF490958095EC
:10163000709561957F4F8F4F9F4F9923A9F0F92F98
:1016400096E9BB279395F695879577956795B79516
:10165000F111F8CFFAF4BB0F11F460FF1BC06F5FFC
:101660007F4F8F4F9F4F16C0882311F096E911C00E
:10167000772321F09EE8872F762F05C0662371F02F
:1016800096E8862F70E060E02AF09A95660F771F43
:10169000881FDAF7880F9695879597F90895990F1F
:1016A0000008550FAA0BE0E8FEEF16161706E8072C
:1016B000F907C0F012161306E407F50798F0621B4D
:1016C000730B840B950B39F40A2661F0232B242B22
:1016D000252B21F408950A2609F4A140A6958FEF41
:1016E000811D811D089597F99F6780E870E060E093
:1016F00008959FEF80EC089500240A9416161706AB
:1017000018060906089500240A94121613061406F2
:1017100005060895092E0394000C11F4882352F055
:10172000BB0F40F4BF2B11F460FF04C06F5F7F4F0D
:101730008F4F9F4F089557FD9058440F551F59F0F4
:101740005F3F71F04795880F97FB991F61F09F3FAE
:1017500079F087950895121613061406551FF2CFD7
:101760004695F1DF08C0161617061806991FF1CF27
:1017700086957105610508940895E894BB2766274E
:101780007727CB0197F908950E944F0B08F48FEF4C
:1017900008950E94DC0B0C948A0B0E947C0B38F09D
:1017A0000E94830B20F0952311F00C94730B0C9482
:1017B000790B11240C94BE0B0E949B0B70F3959F28
:1017C000C1F3950F50E0551F629FF001729FBB2738
:1017D000F00DB11D639FAA27F00DB11DAA1F649FD4
:1017E0006627B00DA11D661F829F2227B00DA11D87
:1017F000621F739FB00DA11D621F839FA00D611D0D
:10180000221F749F3327A00D611D231F849F600D2D
:10181000211D822F762F6A2F11249F5750409AF056
:10182000F1F088234AF0EE0FFF1FBB1F661F771FE2
:10183000881F91505040A9F79E3F510580F00C94AD
:10184000730B0C94BE0B5F3FE4F3983ED4F3869584
:1018500077956795B795F795E7959F5FC1F7FE2B4D
:10186000880F911D9695879597F908950E944F0BC3
:10187000880B990B0895991B79E004C0991F96175E
:1018800008F0961B881F7A95C9F780950895EE0F8A
:10189000FF1F0590F491E02D099481E090E0F89409
:0818A0000C94520CF894FFCFE8
:1018A800000000006201CF00FA00A9012B01090124
:1018B8001D0100000000D602C202E802B402BB0209
:1018C800B802B5026E616E00696E66006F766600DA
:1018D8000D0A00207365636F6E647320686173205E
:1018E8007061737365640050726576696F757320F3
:1018F8006D6F64616C20646973743A20004375727B
:1019080072656E74206D6F64616C20646973743ADB
:1019180020004465637220636F6E632E2062793AFB
:101928002000496E637220636F6E632062793A20EB
:101938000046696E616C206361666665696E652044
:061948006C766C3A2000F1
:00000001FF
