:100000000C9463000C948B000C948B000C94BA0538
:100010000C94BA050C94BA050C948B000C948B00CC
:100020000C948B000C948B000C948B000C94F904B2
:100030000C948B000C948B000C948B000C948B0014
:100040000C940A040C948B000C9484010C945E01B3
:100050000C948B000C948B000C948B000C948B00F4
:100060000C944A060C948B0000000000240027002A
:100070002A0000000008000201000003040700003D
:1000800000000000000000000000250028002B00F8
:1000900000000000230026002900040404040404D6
:1000A0000404020202020202030303030303010227
:1000B00004081020408001020408102001020408F6
:1000C0001020A70E970E11241FBECFEFD8E0DEBF81
:1000D000CDBF11E0A0E0B1E0ECE1FAE202C0059092
:1000E0000D92AE3FB107D9F724E0AEEFB1E001C009
:1000F0001D92A034B207E1F710E0C2E6D0E004C0E0
:100100002197FE010E94EF12C136D107C9F70E9464
:100110002D0A0C9401150C940000FC01538D448DA4
:10012000252F30E0842F90E0821B930B541710F0A2
:10013000CF96089501970895FC01918D828D9817AF
:1001400061F0828DDF01A80FB11D5D968C91928DBB
:100150009F5F9F73928F90E008958FEF9FEF0895B8
:10016000FC01918D828D981731F0828DE80FF11D81
:10017000858D90E008958FEF9FEF0895FC01918D9C
:10018000228D892F90E0805C9F4F821B91098F7395
:100190009927089586E393E00E94BE0021E0892B11
:1001A00009F420E0822F0895FC01848DDF01A80F5F
:1001B000B11DA35ABF4F2C91848D90E001968F738F
:1001C0009927848FA689B7892C93A089B1898C91AE
:1001D00080648C93938D848D981306C00288F38974
:1001E000E02D80818F7D80830895EF92FF920F93A1
:1001F0001F93CF93DF93EC0181E0888F9B8D8C8DD3
:10020000981305C0E889F989808185FD24C0F62E00
:100210000B8D10E00F5F1F4F0F731127E02E8C8D99
:10022000E8120CC00FB607FCFACFE889F989808183
:1002300085FFF5CFCE010E94D400F1CF8B8DFE015A
:10024000E80FF11DE35AFF4FF0820B8FEA89FB891B
:100250008081806207C0EE89FF896083E889F9891F
:1002600080818064808381E090E0DF91CF911F9155
:100270000F91FF90EF900895CF93DF93EC01888D5D
:100280008823C9F0EA89FB89808185FD05C0A8899A
:10029000B9898C9186FD0FC00FB607FCF5CF808120
:1002A00085FFF2CFA889B9898C9185FFEDCFCE016A
:1002B0000E94D400E7CFDF91CF9108951F920F9253
:1002C0000FB60F9211242F933F934F935F936F9329
:1002D0007F938F939F93AF93BF93EF93FF9386E3A7
:1002E00093E00E94D400FF91EF91BF91AF919F9155
:1002F0008F917F916F915F914F913F912F910F90CF
:100300000FBE0F901F9018951F920F920FB60F926D
:1003100011242F938F939F93EF93FF93E0914603C4
:10032000F09147038081E0914C03F0914D0382FDF1
:1003300012C0908180914F038F5F8F732091500383
:10034000821751F0E0914F03F0E0EA5CFC4F958F8B
:1003500080934F0301C08081FF91EF919F918F9116
:100360002F910F900FBE0F901F90189580E090E096
:10037000892B29F00E94CA0081110C940000089575
:100380003FB7F8948091320390913303A0913403E6
:10039000B091350326B5A89B05C02F3F19F00196F3
:1003A000A11DB11D3FBFBA2FA92F982F8827820FFB
:1003B000911DA11DB11DBC01CD0142E0660F771F4B
:1003C000881F991F4A95D1F7089520910002309116
:1003D00001022817390771F49091FE018091FF0105
:1003E000981741F0E091FE01F0E0E655FD4F808165
:1003F00090E008958FEF9FEF089508951F93CF9396
:10040000DF93DC015C962D913C915D9721153105C0
:1004100039F481E090E013969C938E9312973DC03F
:100420005196ED91FC91529750969C915097892F3F
:1004300080951FB75E964C915E9741FB772770F9C8
:1004400041FD6095F8944081772311F0492B01C05C
:1004500048234083E9012197F1F748E0508160FF8C
:1004600002C0592B01C058235083E9012197F1F7AD
:100470006695415099F7772321F0908189238083F5
:1004800003C08081982B90831FBF5C968D919C91B7
:100490005D970197F1F721E030E0C901DF91CF913D
:1004A0001F91089520910002309101022817390709
:1004B00071F48091FF012091FE0190E0805C9F4FDC
:1004C000821B910960E470E00E94C712089580E0E9
:1004D00090E0089520910002309101022817390719
:1004E000B9F49091FE018091FF01981789F0E09195
:1004F000FE01F0E0E655FD4F80812091FE0130E0E5
:100500002F5F3F4F2F7333272093FE0190E0089514
:100510008FEF9FEF089585ED8093BC008091BC0024
:1005200084FDFCCF10920402089540918502262F8D
:1005300030E0240F311D21323105DCF4209104021A
:100540002430C9F4FC0180E090E0861758F4309123
:1005500085022191DC01AD59BD4FA30FB11D2C9334
:100560000196F3CF80918502680F6093850280E049
:10057000089581E0089582E00895089581E090E073
:100580003091080220910702321710F480E090E0C9
:1005900091958195910908958091080290910702A3
:1005A000891730F48F5F8093080280E090E008950F
:1005B0008FEF9FEF08958091070290E0209108024D
:1005C000821B91090895CF92DF92EF92FF920F93D1
:1005D0001F93CF93DF937C01262F972F8A01809161
:1005E0000F03882391F0C62FD72F6E01C40ED51E9E
:1005F000CC15DD0571F06991D701ED91FC91019069
:10060000F081E02DC7010995F3CF642F822F0E945E
:100610009502C801DF91CF911F910F91FF90EF904C
:10062000DF90CF900895CF93DF931F92CDB7DEB7C1
:10063000698320910F032223D1F0209105022032FB
:1006400040F021E030E0FC013383228380E090E041
:1006500015C080910602E82FF0E0E05FFC4F998121
:1006600090838F5F809306028093050205C061E04E
:10067000CE0101960E94950281E090E00F90DF91FB
:10068000CF910895089580E090E008950E94EC14C1
:1006900090E0FC01EE58FF4F3491FC01E255FF4F12
:1006A0002491FC01E656FF4FE491EE2309F43BC090
:1006B000332339F1333091F038F43130A9F032304E
:1006C00001F584B58F7D12C0373091F03830A1F03C
:1006D0003430B9F4809180008F7D03C08091800018
:1006E0008F77809380000DC084B58F7784BD09C05B
:1006F0008091B0008F7703C08091B0008F7D809390
:10070000B000F0E0EE0FFF1FEA57FF4FA591B49144
:100710008FB7F894EC91611103C020952E2301C08E
:100720002E2B2C938FBF0895CF93DF9390E0FC0185
:10073000E255FF4F2491FC01E656FF4F8491882338
:1007400061F190E0880F991FFC01E859FF4FC591B6
:10075000D491FC01EA57FF4FA591B491611109C0F2
:100760009FB7F8948881209582238883EC912E236B
:100770000BC0623061F49FB7F8943881822F809566
:1007800083238883EC912E2B2C939FBF06C08FB7B9
:10079000F894E8812E2B28838FBFDF91CF910895A5
:1007A0008F929F92AF92BF92CF92DF92EF92FF9281
:1007B0006B017C010E94C0014B015C01C114D1049A
:1007C000E104F104F1F00E94C001DC01CB018819C1
:1007D0009909AA09BB09883E9340A105B10570F3A8
:1007E00021E0C21AD108E108F10888EE880E83E002
:1007F000981EA11CB11CC114D104E104F10419F725
:10080000DDCFFF90EF90DF90CF90BF90AF909F90A3
:100810008F9008951F920F920FB60F9211242F936D
:100820003F938F939F93AF93BF93809109029091D1
:100830000A02A0910B02B0910C023091310323E027
:10084000230F2D3720F40196A11DB11D05C026E808
:10085000230F0296A11DB11D20933103809309023D
:1008600090930A02A0930B02B0930C028091320382
:1008700090913303A0913403B09135030196A11DEB
:10088000B11D8093320390933303A0933403B0934C
:100890003503BF91AF919F918F913F912F910F9011
:1008A0000FBE0F901F901895CF93FC01C48121E0DB
:1008B00020930F03C093300310920602109205029A
:1008C0008385682B83ED93E00E94130380910502DA
:1008D000813208F046C0909104029111FCCF92E061
:1008E0009093040291E0909303029FEF90930E0384
:1008F00010920D0380930C03A0E1B3E02CEE32E0E4
:10090000F9019E2F921B981718F49D919193F9CF9E
:100910001092EB028091EB02CC0FC82BC093EB023C
:1009200080910202813061F4109202028091EB0208
:100930008093BB008091BC0083FDF8CF85EC01C0A3
:1009400085EE8093BC00809104028230E1F38091B7
:100950000E038F3F31F080910E03803211F08091B1
:100960000E03109206021092050210920F03CF910F
:1009700008950F931F93CF938C01C62F0E945404A8
:100980006C2F6460C8010E9454046C2F6B7FC801F7
:100990000E94540483EC90E00197F1F7CF911F91EE
:1009A0000F910895FF920F931F93CF93DF931F92A0
:1009B000CDB7DEB78C01F62E962F907F692F642B72
:1009C000C80149830E94B90480E1F89EB001112456
:1009D0004981642BC8010F90DF91CF911F910F9136
:1009E000FF900C94B90441E00E94D20481E090E0B1
:1009F00008951F920F920FB60F9211242F933F93D9
:100A00004F935F936F937F938F939F93AF93BF9316
:100A1000EF93FF938091EA0287FF05C01092850053
:100A2000109284001BC02091EA02022E000C330BAE
:100A30008091030490E02817390784F48091EA023A
:100A4000082E000C990BFC01EE0FFF1F8E0F9F1F4D
:100A5000FC01E152FC4F808186FD15C08091EA02C5
:100A60008F5F8093EA022091EA02022E000C330B82
:100A70008091030490E028173907C4F48091EA02BA
:100A80008C3064F113C08091EA02082E000C990B9F
:100A9000FC01EE0FFF1F8E0F9F1FFC01E152FC4F68
:100AA000808160E08F730E944803D8CF80918400DA
:100AB00090918500049680349C4918F480E49CE968
:100AC00005C08091840090918500049690938900E0
:100AD000809388008FEF8093EA023BC020918400CE
:100AE000309185008091EA02082E000C990BFC01E0
:100AF000EE0FFF1F8E0F9F1FFC01E152FC4F818103
:100B00009281820F931F9093890080938800809137
:100B1000EA02082E000C990BFC01EE0FFF1F8E0F4E
:100B20009F1FFC01E152FC4F808186FF12C0809123
:100B3000EA02082E000C990BFC01EE0FFF1F8E0F2E
:100B40009F1FFC01E152FC4F808161E08F730E9486
:100B50004803FF91EF91BF91AF919F918F917F914A
:100B60006F915F914F913F912F910F900FBE0F901A
:100B70001F9018951F920F920FB60F9211242F936A
:100B80003F934F935F936F937F938F939F93AF9315
:100B9000BF93EF93FF93E0910002F0910102309731
:100BA00009F451C0968DA685B785858591FF04C04F
:100BB0009C91892329F447C09C91892309F043C063
:100BC000A389B4899C918589809589238C93868992
:100BD00097890197F1F7608D718DA685B785558549
:100BE00038E020E0CB010197F1F7822F90E0959556
:100BF0008795282F4C91452309F02068315091F7B3
:100C0000868D81FD20958091FF0190E001968F7384
:100C100099273091FE01381749F0A091FF01B0E00B
:100C2000A655BD4F2C938093FF0103C0868D816034
:100C3000868F828D938D0197F1F7A389B4899C915A
:100C40008589892B8C93FF91EF91BF91AF919F91F3
:100C50008F917F916F915F914F913F912F910F9065
:100C60000FBE0F901F901895E0910002F0910102C5
:100C7000E817F90769F4A389B4899C91858980955F
:100C800089238C93109201021092000281E0089552
:100C900080E008951F920F920FB60F9211242F93A8
:100CA0003F934F935F936F937F938F939F93AF93F4
:100CB000BF93EF93FF938091B900887F803609F44A
:100CC0009CC068F5883209F45BC090F4803109F467
:100CD00054C038F4882309F4F6C0883009F44DC0B4
:100CE000F6C0883109F44CC0803209F45DC0EFC011
:100CF000803409F468C048F4803309F455C088335F
:100D000009F0E5C080930E03D8C0803509F44FC0C8
:100D1000883509F45DC0883409F0D9C0D6C0883957
:100D200009F4C7C0A8F4883709F467C038F48836D6
:100D300009F463C0803709F460C0C9C0883809F479
:100D4000B8C0803909F45FC0803809F0C0C05BC00A
:100D5000803B09F486C038F4803A09F466C0883ACA
:100D600009F47FC0B4C0803C09F4A7C0883C09F4F2
:100D7000A4C0883B09F48AC0AAC08091EB0210C0CD
:100D800090910D0380910C03981770F5E0910D037D
:100D900081E08E0F80930D03F0E0E451FD4F8081E0
:100DA0008093BB0085EC86C080930E038EC0E091DB
:100DB0000D0381E08E0F80930D038091BB00F0E066
:100DC000E451FD4F808390910D0380910C036EC020
:100DD000E0910D0381E08E0F80930D038091BB00A5
:100DE000F0E0E451FD4F80838091030281116DC0DA
:100DF00081E08093020284EA61C083E08093040270
:100E00001092A902CFCF8091A902803208F051C080
:100E1000E091A90281E08E0F8093A9028091BB002E
:100E2000F0E0E757FD4F8083BDCF85EC8093BC0099
:100E3000109204028091A902803230F4E091A9025C
:100E4000F0E0E757FD4F10826091A90270E0E09159
:100E50008702F091880289E892E009951092A90230
:100E600036C084E0809304021092860210928502BC
:100E7000E0918302F09184020995809185028111AD
:100E800005C081E08093850210926302E0918602A2
:100E900081E08E0F80938602F0E0ED59FD4F808156
:100EA0008093BB009091860280918502981708F488
:100EB00079CF85E88093BC000AC085EC8093BC00A4
:100EC0001092040204C010920E030E948B02FF9144
:100ED000EF91BF91AF919F918F917F916F915F91B2
:100EE0004F913F912F910F900FBE0F901F9018952B
:100EF0006115710579F0FB0101900020E9F7319748
:100F0000AF01461B570BDC01ED91FC910280F38190
:100F1000E02D099480E090E00895CF92DF92EF9267
:100F2000FF920F931F93CF93DF936C017A018B0194
:100F3000C0E0D0E0CE15DF0589F0D8016D918D01BC
:100F4000D601ED91FC910190F081E02DC60109954B
:100F5000892B11F47E0102C02196ECCFC701DF91ED
:100F6000CF911F910F91FF90EF90DF90CF90089558
:100F7000CF93DF93CDB7DEB728970FB6F894DEBFD7
:100F80000FBECDBF88E0E6E0F1E0DE0111960190F2
:100F90000D928A95E1F780913804811102C08FEF9C
:100FA00001C081E0FE013196E80FF11DE80FF11D4F
:100FB0006081606840E080E394E028960FB6F89482
:100FC000DEBF0FBECDBFDF91CF910C94D204AC0138
:100FD00090910A049C3090F580910B0428E830E051
:100FE000281B310987FD3395220F331F220F331F32
:100FF0004217530784F080910C0428E532E0281B47
:10100000310987FD3395220F331F220F331F4217FB
:1010100053070CF49A0122503109220F331F4FB7A6
:10102000F894892F90E0FC01EE0FFF1F8E0F9F1F99
:10103000FC01E152FC4F328321834FBF0895CF92D0
:10104000DF92EF92FF92803222E092070CF03FC0D5
:1010500097FD06C0853B91052CF084EB90E002C023
:1010600080E090E020910B0448E850E06A01C21A49
:10107000D10827FDD394CC0CDD1CCC0CDD1C0D2C31
:10108000000CEE08FF0840910C0428E532E0241B18
:10109000310947FD3395220F331F220F331FA9015A
:1010A000330F660B770B9A01AB012C193D094E09E2
:1010B0005F09DC010E94331124EB30E040E050E096
:1010C0000E940911C20ED31EE41EF51EC601FF9038
:1010D000EF90DF90CF900C94E707CF93DF93BC01A4
:1010E00086E393E00E947807EC016DE671E086E309
:1010F00093E00E9478078C0F9D1FDF91CF91089598
:101100004F925F926F927F92EF92FF920F931F9395
:10111000CF93DF93CDB7DEB7A1970FB6F894DEBFBC
:101120000FBECDBF7C01FA01CB0119A2223008F419
:101130002AE08E010F5D1F4F422E512C612C712C25
:10114000BF01A30192010E947211F901CA0101506D
:1011500011096A3014F4605D01C0695CD8016C93B8
:10116000232B242B252B61F7B801C7010E94780798
:10117000A1960FB6F894DEBF0FBECDBFDF91CF9121
:101180001F910F91FF90EF907F906F905F904F9025
:101190000895DC01ED91FC910190F081E02D09941E
:1011A000CF92DF92EF92FF92CF93DF936C01990F72
:1011B000EE08FF08F7FE1BC06DE286E393E00E9495
:1011C000C908EC0144275527BA014C195D096E097D
:1011D0007F092AE086E393E00E9480088C0F9D1F20
:1011E000DF91CF91FF90EF90DF90CF9008952AE0AC
:1011F000B701A60186E393E0DF91CF91FF90EF90D6
:10120000DF90CF900C9480084F925F926F927F9204
:101210008F929F92AF92BF92CF92DF92EF92FF9206
:10122000CF93DF93EC016A017B01B22E9A01AB01EF
:10123000C701B6010E94B612882319F062EF71E06F
:1012400027C026013701E89477F82FEF3FEF4FE7EB
:101250005FE7C301B2010E94B61281110DC02FEFEA
:101260003FEF4FE75FE7C301B2010E94E50F181699
:101270001CF466EF71E00CC02FEF3FEF4FE75FE427
:10128000C701B6010E94B11218169CF46AEF71E012
:10129000CE01DF91CF91FF90EF90DF90CF90BF9084
:1012A000AF909F908F907F906F905F904F900C9435
:1012B00078072FEF3FEF4FE75FECC701B6010E94C1
:1012C000E50F87FDE3CF20E030E0A901C701B601BB
:1012D0000E94E50F87FF0AC06DE2CE010E94C90897
:1012E0004C01F7FAF094F7F8F09402C0812C912C9D
:1012F000A12C60E070E080E09FE3AB1441F020E0BF
:1013000030E040E251E40E941012A394F6CF9B011A
:10131000AC01C701B6010E94A4112B013C010E943F
:1013200082126B017C010E94EA0F9B01AC01C30198
:10133000B2010E94A3112B013C012AE0B701A601D2
:10134000CE010E9480087C01E80CF91CBB2031F022
:101350006EE2CE010E94C908E80EF91EDB2CDD20EA
:1013600029F120E030E040E251E4C301B2010E94E3
:101370004B102B013C010E9482124B01A12CB12C7D
:101380002AE0B501A401CE010E948008E80EF91EF2
:10139000C501B4010E94EA0F9B01AC01C301B20177
:1013A0000E94A3112B013C01DA94D9CFC701DF9130
:1013B000CF91FF90EF90DF90CF90BF90AF909F9034
:1013C0008F907F906F905F904F9008950C94780766
:1013D000CF92DF92EF92FF920F931F93E82FF92F96
:1013E00005C0015011092109310961F1908196234D
:1013F0009417B9F305C0015011092109310911F100
:10140000908196239413F7CFC12CD12CE12CF12C91
:101410000AC08FEFC81AD80AE80AF80A0C151D0589
:101420002E053F0579F080818623841791F36C2D7A
:101430007D2D8E2D9F2D1F910F91FF90EF90DF90AE
:10144000CF90089560E070E080E090E01F910F91F0
:10145000FF90EF90DF90CF900895789484B58260EC
:1014600084BD84B5816084BD85B5826085BD85B548
:10147000816085BD80916E00816080936E001092C6
:101480008100809181008260809381008091810041
:1014900081608093810080918000816080938000D2
:1014A0008091B10084608093B1008091B000816030
:1014B0008093B00080917A00846080937A0080915C
:1014C0007A00826080937A0080917A0081608093B4
:1014D0007A0080917A00806880937A001092C1002F
:1014E000E0914603F091470382E08083E09142035C
:1014F000F09143031082E0914403F09145038FEC97
:10150000808310924E03E0914A03F0914B0386E0F2
:101510008083E0914803F09149038081806180835A
:10152000E0914803F0914903808188608083E091D5
:101530004803F0914903808180688083E0914803EB
:10154000F091490380818F7D808310922C0410924A
:101550002B0410922A04109229041092280410924D
:1015600027048DE991E090932E0480932D049091AF
:101570001D04963108F057C02DEB30E0309328045D
:10158000209327042BE931E030932A042093290487
:101590002CE231E030932C0420932B04209168003E
:1015A000983050F031E09E3008F430E081E001C026
:1015B000880F3A95EAF701C084E0822B8093680097
:1015C000983038F09E3040F0963148F020E030E01E
:1015D00008C02DE630E005C02BE630E002C02CE666
:1015E00030E03093250420932404983030F481E0D7
:1015F00001C0880F9A95EAF70EC0292F30E09E307F
:1016000018F42850310902C02E50310981E001C080
:10161000880F2A95EAF78093260480912D049091F3
:101620002E040197F1F780912B0490912C04892BC3
:1016300021F1809100029091010224E08131920712
:10164000E1F0009711F00E94340680912F048E7F04
:1016500080932F041092FF011092FE0181E194E02B
:101660009093010280930002E0912404F0912504FC
:10167000908180912604892B808361E08DE00E9417
:10168000940361E08DE00E944803109208021092DA
:10169000070210920602109205021092040281E0E5
:1016A000809303021092020261E082E10E944803EB
:1016B00061E083E10E9448038091B9008E7F8093AE
:1016C000B9008091B9008D7F8093B90088E4809340
:1016D000B80085E48093BC001092350480913A04F0
:1016E000823018F098E0909335048093380462E3D8
:1016F00070E080E090E00E94D00360913B0480E3C2
:1017000094E00E94540468EE73E080E090E00E9450
:10171000D00360E380E394E00E94B904CBE4D6E414
:10172000CE010197F1F760E380E394E00E94B904F1
:101730002197F1F760E380E394E00E94B90483E528
:1017400092E00197F1F760E280E394E00E94B9042F
:1017500060913504606240E080E394E00E94D2042E
:1017600084E08093360440E06CE080E394E00E94E3
:10177000D20440E061E080E394E00E94D204CBE335
:10178000DFE1CE010197F1F782E08093370440E07A
:1017900066E080E394E00E94D20440E062E080E3EF
:1017A00094E00E94D2042197F1F788E080933B04F3
:1017B00060E080E394E00E94540461E085E00E94D0
:1017C000940360E086E00E94940380910A048C30C8
:1017D00008F051C061E082E00E94940380910A0405
:1017E000E82FF0E09F01220F331FE20FF31FE152B9
:1017F000FC4F9081907C9260908310920B04109229
:101800000C046CE00E94BB129CE0899FB001112483
:1018100040E050E09A01260F371FF901EE0FFF1F3D
:101820002E0F3F1FF901E152FC4F908196FD16C02B
:101830004F5F5F4F4C30510569F781110FC0109217
:10184000800082E0809381001092850010928400D5
:10185000B19A80916F00826080936F00E0910A04DA
:10186000F0E0CF01880F991FE80FF91FE152FC4FFC
:101870008081806480838CED95E00E94E70780E0A2
:1018800090E00E941F0881E08093190262E571E0F8
:1018900080E394E00E94E60940911B0250911C02F3
:1018A00060911D0270911E0222E080E394E00E948C
:1018B00004096BE571E080E394E00E94E6096EE5BF
:1018C00071E081E194E00E9478070E94B80780915E
:1018D0001A02882319F066E671E002C064E671E03E
:1018E00080E394E00E94E60927E3222E312C3AE3BC
:1018F000432E512C612C712CCBE3DFE160E085E0BD
:101900000E94480383E090E00197F1F761E085E0F1
:101910000E944803C1010197F1F760E085E00E9451
:101920004803E4EBF0E06491E0EAF0E08491E82F12
:10193000F0E0EE0FFF1FE057FF4F8591949100E418
:1019400012E42FE030E0462F0E94E809611571058E
:101950008105910549F0DC01CB010196A11DB11D66
:10196000BC01CD019F7003C060E070E0CB016093CB
:101970001102709312028093130290931402A30138
:1019800092010E94091120930D0230930E024093A0
:101990000F0250931002225031092232310550F4C7
:1019A000220F331FF901E15EFD4F80819181019685
:1019B0009183808381E194E00E945202892B29F176
:1019C00081E194E00E946A026C01990FEE08FF0821
:1019D000F7FE0EC06DE286E393E00E94C90844273B
:1019E0005527BA014C195D096E097F092AE003C029
:1019F0002AE0B701A60186E393E00E9480086DE625
:101A000071E086E393E00E9478078FB7F8944091E5
:101A1000090250910A0260910B0270910C028FBF73
:101A200080910D0490910E04A0910F04B0911004C8
:101A300084179507A607B70708F070C183E090E008
:101A40000E94D00880E791E00E946D0880910D040B
:101A500090910E04A0910F04B09110048854944FFB
:101A6000AF4FBF4F80930D0490930E04A0930F04CB
:101A7000B093100480911902882301F1EFE1F2E0A4
:101A800020E030E040E050E080E090E06191719132
:101A90004617570724F49C012E5F3F4FAB01019678
:101AA0008232910599F730931802209317023093F0
:101AB0001602209315021092190221C0809117027C
:101AC000909118029093160280931502EFE1F2E0D4
:101AD00020E030E040E050E080E090E061917191E2
:101AE0004617570724F49C012E5F3F4FAB01019628
:101AF0008232910599F7309318022093170264E817
:101B000071E086E393E00E94E609809115029091CE
:101B100016020E94D0088AE991E00E946D086DE9E2
:101B200071E086E393E00E94E609809117029091AC
:101B300018020E94D0088AE991E00E946D0862EBC9
:101B400071E086E393E00E94E609C0901B02D0900A
:101B50001C02E0901D02F0901E0221E73EEF40E5DE
:101B60005FE3C701B6010E944B109B01AC01C701A6
:101B7000B6010E94A311AB01BC0122E086E393E011
:101B80000E9404098BE591E00E946D0821E73EEF79
:101B900040E55FE360911B0270911C0280911D0281
:101BA00090911E020E944B104B015C0160931B023E
:101BB00070931C0280931D0290931E026091170285
:101BC000709118028091150290911602861797075E
:101BD000ACF5681B790B072E000C880B990B0E9443
:101BE000EC0F24E230EF49E151E40E944B102EE467
:101BF00032E640E35FE30E944B106B017C019B01E6
:101C0000AC01C501B4010E94A41160931B02709342
:101C10001C0280931D0290931E0262EC71E086E329
:101C200093E00E94E60922E0B701A60186E393E073
:101C30000E9404098BE591E00E946D0861ED71E05E
:101C400086E393E00E94E60940911B0250911C023A
:101C500060911D0270911E0222E086E393E00E94D3
:101C600004098BE591E00E946D086DE671E086E362
:101C700093E00E947807EFE1F2E01192119222E0E6
:101C8000E336F207D1F7C0901B02D0901C02E0901F
:101C90001D02F0901E0220E030E048EC52E4C70143
:101CA000B6010E94B112181644F48AE590E00E9431
:101CB0001F0881E080931A0206C080E090E00E9435
:101CC0001F0810921A02B0901A0240E061E080E30F
:101CD00094E00E94D204CE010197F1F762E571E031
:101CE00080E394E00E94E60922E0B701A60180E3C8
:101CF00094E00E9404096BE571E080E394E00E94A7
:101D0000E6090E94B807BB2019F066E671E002C040
:101D100064E671E080E394E00E94E60964E670E026
:101D200080E090E00E94D0030E94B601E7CD809150
:101D30000404909105040E948A1386E391E0909335
:101D400012048093110481E194E00C943406109203
:101D500039031092380388EE93E0A0E0B0E080935E
:101D60003A0390933B03A0933C03B0933D0322E1DD
:101D700031E0309337032093360325EC30E0309385
:101D800043032093420324EC30E030934503209337
:101D9000440320EC30E0309347032093460321ECCA
:101DA00030E0309349032093480322EC30E0309335
:101DB0004B0320934A0326EC30E030934D032093ED
:101DC0004C0310924F031092500310925103109243
:101DD00052031092D6031092D5038093D7039093A9
:101DE000D803A093D903B093DA0324E231E030930F
:101DF000D4032093D303109233041092320428E4C6
:101E000031E0309331042093300420E220933404F5
:101E100020E12093390422E020933A0410923B04FD
:101E200010921404109213048093150490931604D6
:101E3000A0931704B093180486E391E090931204E2
:101E400080931104109228041092270410922A04FF
:101E50001092290410922C0410922B0410922E043C
:101E600010922D0460912F046E7F6D7F60932F047C
:101E70006695617081E068278AE00E94480361E00E
:101E80008AE00E949403E8EBF0E0E491E0932104FF
:101E9000E4EAF0E0E491F0E0EE0FFF1FEA57FF4FB5
:101EA00085919491909323048093220460E08BE0C9
:101EB0000E94940380912F0481FD04C061E08BE0B7
:101EC0000E9448038BE080931D04E9EBF0E0E4916D
:101ED000E0931E04E5EAF0E0E491F0E0EE0FFF1F6E
:101EE000E057FF4F859194919093200480931F04B5
:101EF00088EB9BE0A0E0B0E080930D0490930E048B
:101F0000A0930F04B0931004809103048C30A0F4CC
:101F100091E0980F9093030480930A0490E0FC01F1
:101F2000EE0FFF1F8E0F9F1FFC01E152FC4F88EB4D
:101F30009BE09283818303C08FEF80930A04109209
:101F400005041092040410920704109206041092E3
:101F50000904109208046CE070E080E090E00E94B8
:101F60002214009799F090930504809304042BE0C9
:101F700030E0309307042093060420910804309148
:101F80000904232BC1F4FC01108215C080910404C4
:101F900090910504009711F00E948A131092050495
:101FA000109204041092090410920804109207047D
:101FB0001092060408952BE030E03093090420933A
:101FC000080466EE71E00C94FA140E94271008F4DD
:101FD00081E00895E89409C097FB3EF490958095C0
:101FE000709561957F4F8F4F9F4F9923A9F0F92FDF
:101FF00096E9BB279395F695879577956795B7955D
:10200000F111F8CFFAF4BB0F11F460FF1BC06F5F42
:102010007F4F8F4F9F4F16C0882311F096E911C054
:10202000772321F09EE8872F762F05C0662371F075
:1020300096E8862F70E060E02AF09A95660F771F89
:10204000881FDAF7880F9695879597F90895990F65
:102050000008550FAA0BE0E8FEEF16161706E80772
:10206000F907C0F012161306E407F50798F0621B93
:10207000730B840B950B39F40A2661F0232B242B68
:10208000252B21F408950A2609F4A140A6958FEF87
:10209000811D811D08950E945E100C94CF100E9436
:1020A000C11038F00E94C81020F0952311F00C9454
:1020B000B8100C94BE1011240C9403110E94E0106F
:1020C00070F3959FC1F3950F50E0551F629FF0018B
:1020D000729FBB27F00DB11D639FAA27F00DB11DA4
:1020E000AA1F649F6627B00DA11D661F829F22272D
:1020F000B00DA11D621F739FB00DA11D621F839FB4
:10210000A00D611D221F749F3327A00D611D231F89
:10211000849F600D211D822F762F6A2F11249F57D7
:1021200050409AF0F1F088234AF0EE0FFF1FBB1FDA
:10213000661F771F881F91505040A9F79E3F510599
:1021400080F00C94B8100C9403115F3FE4F3983EB8
:10215000D4F3869577956795B795F795E7959F5F43
:10216000C1F7FE2B880F911D9695879597F90895D5
:1021700097F99F6780E870E060E008959FEF80EC3A
:10218000089500240A9416161706180609060895DD
:1021900000240A9412161306140605060895092E43
:1021A0000394000C11F4882352F0BB0F40F4BF2BB2
:1021B00011F460FF04C06F5F7F4F8F4F9F4F0895F2
:1021C00057FD9058440F551F59F05F3F71F04795E8
:1021D000880F97FB991F61F09F3F79F087950895CD
:1021E000121613061406551FF2CF4695F1DF08C0EC
:1021F000161617061806991FF1CF86957105610509
:1022000008940895E894BB2766277727CB0197F9B0
:102210000895052E97FB1EF400940E94201157FD8F
:1022200007D00E94721107FC03D04EF40C942011C9
:1022300050954095309521953F4F4F4F5F4F0895F2
:1022400090958095709561957F4F8F4F9F4F089522
:102250000E949411A59F900DB49F900DA49F800D96
:10226000911D11240895B7FF0C9428110E94281184
:10227000821B930B08952F923F924F925F926F9221
:102280007F928F929F92AF92BF92CF92DF92EF9206
:10229000FF920F931F93CF93DF93CDB7DEB7CA1B87
:1022A000DB0B0FB6F894DEBF0FBECDBF09942A88B2
:1022B000398848885F846E847D848C849B84AA845A
:1022C000B984C884DF80EE80FD800C811B81AA81E7
:1022D000B981CE0FD11D0FB6F894DEBF0FBECDBFB2
:1022E000ED010895A1E21A2EAA1BBB1BFD010DC032
:1022F000AA1FBB1FEE1FFF1FA217B307E407F507B6
:1023000020F0A21BB30BE40BF50B661F771F881F91
:10231000991F1A9469F760957095809590959B0127
:10232000AC01BD01CF010895A29FB001B39FC001D0
:10233000A39F700D811D1124911DB29F700D811DF1
:102340001124911D08955058BB27AA270E94BB1144
:102350000C94CF100E94C11038F00E94C81020F0D9
:1023600039F49F3F19F426F40C94BE100EF4E09556
:10237000E7FB0C94B810E92F0E94E01058F3BA174D
:10238000620773078407950720F079F4A6F50C948B
:1023900002110EF4E0950B2EBA2FA02D0B01B901FE
:1023A00090010C01CA01A0011124FF27591B99F0CB
:1023B000593F50F4503E68F11A16F040A22F232FD7
:1023C000342F4427585FF3CF469537952795A79527
:1023D000F0405395C9F77EF41F16BA0B620B730BCE
:1023E000840BBAF09150A1F0FF0FBB1F661F771F3F
:1023F000881FC2F70EC0BA0F621F731F841F48F4F4
:10240000879577956795B795F7959E3F08F0B0CF7C
:102410009395880F08F09927EE0F97958795089563
:102420000E9424120C94CF100E94C81058F00E94F1
:10243000C11040F029F45F3F29F00C94B8105111FD
:102440000C9403110C94BE100E94E01068F39923C1
:10245000B1F3552391F3951B550BBB27AA276217A0
:102460007307840738F09F5F5F4F220F331F441FAD
:10247000AA1FA9F335D00E2E3AF0E0E832D09150E1
:102480005040E695001CCAF72BD0FE2F29D0660FCE
:10249000771F881FBB1F261737074807AB07B0E811
:1024A00009F0BB0B802DBF01FF2793585F4F3AF017
:1024B0009E3F510578F00C94B8100C9403115F3FC7
:1024C000E4F3983ED4F3869577956795B795F7959D
:1024D0009F5FC9F7880F911D9695879597F9089585
:1024E000E1E0660F771F881FBB1F62177307840721
:1024F000BA0720F0621B730B840BBA0BEE1F88F730
:10250000E09508950E94E81088F09F5798F0B92F41
:102510009927B751B0F0E1F0660F771F881F991F18
:102520001AF0BA95C9F714C0B13091F00E940211A7
:10253000B1E008950C940211672F782F8827B85FB7
:1025400039F0B93FCCF3869577956795B395D9F770
:102550003EF490958095709561957F4F8F4F9F4F7A
:1025600008950E94271008F48FEF08950E94271005
:10257000880B990B0895991B79E004C0991F961751
:1025800008F0961B881F7A95C9F78095089597FBE8
:10259000072E16F4009407D077FD09D00E94DB12B5
:1025A00007FC05D03EF4909581959F4F0895709556
:1025B00061957F4F0895AA1BBB1B51E107C0AA1F5D
:1025C000BB1FA617B70710F0A61BB70B881F991FD4
:1025D0005A95A9F780959095BC01CD010895EE0F0D
:1025E000FF1F0590F491E02D0994CF93DF93823083
:1025F000910510F482E090E0E0913E04F0913F04F8
:1026000020E030E0C0E0D0E0309711F1408151810E
:1026100048175907C0F04817590761F48281938120
:10262000209719F09B838A832BC090933F0480935B
:102630003E0426C02115310519F04217530718F43E
:102640009A01BE01DF01EF010280F381E02DDCCFB2
:102650002115310509F1281B390B2430310590F47F
:1026600012968D919C9113976115710521F0FB01D4
:102670009383828304C090933F0480933E04FD01C2
:10268000329644C0FD01E20FF31F819391932250D3
:1026900031092D933C933AC020913C0430913D0484
:1026A000232B41F4209102013091030130933D042A
:1026B00020933C0420910001309101012115310546
:1026C00041F42DB73EB74091040150910501241B00
:1026D000350BE0913C04F0913D04E217F307A0F4C0
:1026E0002E1B3F0B2817390778F0AC014E5F5F4F68
:1026F0002417350748F04E0F5F1F50933D04409359
:102700003C048193919302C0E0E0F0E0CF01DF91BF
:10271000CF9108950F931F93CF93DF93009709F400
:102720008CC0FC0132971382128200913E041091FA
:102730003F040115110581F420813181820F931F1F
:1027400020913C0430913D042817390779F5F09326
:102750003D04E0933C0471C0D80140E050E0AE1766
:10276000BF0750F412962D913C911397AD0121159E
:10277000310509F1D901F3CF9D01DA0133832283B9
:1027800060817181860F971F8217930769F4EC01AE
:1027900028813981260F371F2E5F3F4F31832083D9
:1027A0008A819B8193838283452B29F4F0933F0494
:1027B000E0933E0442C01396FC93EE931297ED0112
:1027C000499159919E01240F351FE217F30771F4C7
:1027D00080819181840F951F029611969C938E9310
:1027E0008281938113969C938E931297E0E0F0E0A0
:1027F000D80112968D919C911397009719F0F801CA
:102800008C01F6CF8D919C9198012E5F3F4F820FE6
:10281000931F20913C0430913D042817390769F437
:10282000309729F410923F0410923E0402C01382A4
:10283000128210933D0400933C04DF91CF911F91CD
:102840000F910895A0E0B0E0E8E2F4E10C943F11AC
:10285000EC01009721F4CB010E94F512B8C0FC01F5
:10286000E60FF71F9C0122503109E217F30708F425
:10287000ACC0D9010D911C91119706171707B0F044
:102880000530110508F49FC0C80104978617970703
:1028900008F499C002501109061B170B01931193FC
:1028A0006D937C93CF010E948A138DC05B01A01AA7
:1028B000B10A4C01800E911EA0913E04B0913F04DC
:1028C00040E050E0E12CF12C109709F44AC0A81523
:1028D000B905D1F56D907C901197630182E0C80E27
:1028E000D11CCA14DB0480F1A3014A195B096A01F7
:1028F00082E0C80ED11C1296BC9012971396AC9130
:10290000B5E0CB16D10440F0B282A383518340835B
:10291000D9016D937C930AC00E5F1F4FC301800FD6
:10292000911FF90191838083EB2DFA2FE114F104BB
:1029300031F0D7011396FC93EE93129744C0F093B5
:102940003F04E0933E043FC08D919C91119748173E
:10295000590708F4AC017D0112960D90BC91A02D91
:10296000B3CF80913C0490913D0488159905E1F422
:1029700046175707C8F48091000190910101009714
:1029800041F48DB79EB74091040150910501841B1D
:10299000950BE817F907C8F4F0933D04E0933C0465
:1029A000F901718360830FC0CB010E94F5127C0195
:1029B000009759F0A801BE010E94F114CE010E94B7
:1029C0008A13C70104C0CE0102C080E090E0CDB7F9
:1029D000DEB7EEE00C945B1181E090E0F8940C948B
:1029E0000115FB01DC0102C001900D9241505040E5
:1029F000D8F70895FB01DC0101900D920020E1F76A
:102A0000089510E0C2E6D0E004C0FE010E94EF127B
:0C2A10002196C336D107C9F7F894FFCF18
:102A1C00000040048000000040001400540000003E
:102A2C000000F5008D078D003C01BE009C00B0003D
:102A3C00000000001303E3024303BD02DB02CC02DF
:102A4C00BE0200000000FE018D074303FD0152028F
:102A5C006A02E50100000000F3048D074303420302
:102A6C00B80B496E74616B653A20006D6700686540
:102A7C006C6C6F00554E4C4F434B4544000D0A0097
:102A8C00207365636F6E647320686173207061736B
:102A9C007365640050726576696F7573206D6F6431
:102AAC00616C20646973743A2000636D0043757225
:102ABC0072656E74206D6F64616C20646973743A16
:102ACC0020004465637220636F6E632E2062793A36
:102ADC002000496E637220636F6E632062793A2026
:102AEC000046696E616C206361666665696E65207F
:102AFC006C766C3A200068656C6C6F20776F726C2A
:0E2B0C0064006E616E00696E66006F76660092
:107800000C94343C0C94513C0C94513C0C94513CE1
:107810000C94513C0C94513C0C94513C0C94513CB4
:107820000C94513C0C94513C0C94513C0C94513CA4
:107830000C94513C0C94513C0C94513C0C94513C94
:107840000C94513C0C94513C0C94513C0C94513C84
:107850000C94513C0C94513C0C94513C0C94513C74
:107860000C94513C0C94513C11241FBECFEFD8E036
:10787000DEBFCDBF11E0A0E0B1E0ECE9FFE702C060
:1078800005900D92A230B107D9F712E0A2E0B1E065
:1078900001C01D92AD30B107E1F70E942D3D0C945F
:1078A000CC3F0C94003C982F959595959595959582
:1078B000905D8F708A307CF0282F295A8091C0000B
:1078C00085FFFCCF9093C6008091C00085FFFCCF60
:1078D0002093C6000895282F205DF0CF982F809127
:1078E000C00085FFFCCF9093C6000895EF92FF92F1
:1078F0000F931F93EE24FF2487018091C00087FD22
:1079000017C00894E11CF11C011D111D81E4E8164B
:1079100082E4F8068FE0080780E0180770F3E09132
:107920000401F091050109958091C00087FFE9CF1E
:107930008091C6001F910F91FF90EF9008950E94D3
:10794000763C982F8091C00085FFFCCF9093C600B5
:1079500091362CF490330CF09053892F089597555D
:10796000892F08951F930E949F3C182F0E949F3CCF
:107970001295107F810F1F9108951F93182F882350
:1079800021F00E94763C1150E1F71F9108951F935A
:10799000182F0E94763C803249F0809103018F5F5E
:1079A000809303018530C1F01F9108958091C0003C
:1079B00085FFFCCF84E18093C6008091C00085FFE5
:1079C000FCCF1093C6008091C00085FFFCCF80E102
:1079D0008093C6001F910895E0910401F091050184
:1079E00009951F9108950E94763C803241F0809164
:1079F00003018F5F80930301853081F008958091AA
:107A0000C00085FFFCCF84E18093C6008091C00058
:107A100085FFFCCF80E18093C6000895E0910401CA
:107A2000F09105010995089540E951E08823A1F0FE
:107A30002D9A28EE33E0FA013197F1F721503040CA
:107A4000D1F72D9828EE33E0FA013197F1F7215064
:107A50003040D1F7815061F708953F924F925F9285
:107A60006F927F928F929F92AF92BF92CF92DF924E
:107A7000EF92FF920F931F93CF93DF93000080E16B
:107A80008093C4001092C50088E18093C10086E015
:107A90008093C2005098589A259A81E00E94143D24
:107AA00024E1F22E9EE1E92E85E9D82E0FE0C02ECA
:107AB00010E1B12EAA24A394B1E49B2EA6E58A2E50
:107AC000F2E57F2EE0E26E2E79E4572E63E5462E36
:107AD00050E5352E0E94763C8033B1F18133B9F107
:107AE000803409F46FC0813409F476C0823409F41B
:107AF00085C0853409F488C0803531F1823521F1A3
:107B0000813511F1853509F485C0863509F48DC0BC
:107B1000843609F496C0843709F403C1853709F423
:107B200072C1863709F466C0809103018F5F80932C
:107B30000301853079F6E0910401F0910501099582
:107B40000E94763C803351F60E94F33CC3CF0E94E2
:107B5000763C803249F78091C00085FFFCCFF092DF
:107B6000C6008091C00085FFFCCF9092C600809136
:107B7000C00085FFFCCF8092C6008091C00085FFC9
:107B8000FCCF7092C6008091C00085FFFCCF609250
:107B9000C6008091C00085FFFCCF5092C600809146
:107BA000C00085FFFCCF4092C6008091C00085FFD9
:107BB000FCCF3092C6008091C00085FFFCCFB09210
:107BC000C60088CF0E94763C863808F4BDCF0E945C
:107BD000763C0E94F33C7ECF0E94763C803809F4CC
:107BE0009CC0813809F40BC1823809F43CC1883942
:107BF00009F48FC080E00E94C73C6CCF84E10E94F2
:107C0000BD3C0E94F33C66CF85E00E94BD3C0E94D3
:107C1000F33C60CF0E94763C809306010E94763C44
:107C2000809307010E94F33C55CF0E94763C80333D
:107C300009F41DC183E00E94BD3C80E00E94C73C66
:107C400049CF0E94763C809309020E94763C809343
:107C5000080280910C028E7F80930C020E94763C79
:107C6000853409F415C18091080290910902892B8D
:107C700089F000E010E00E94763CF801E85FFE4FDA
:107C800080830F5F1F4F80910802909109020817AF
:107C9000190788F30E94763C803209F045CF809125
:107CA0000C0280FF01C16091060170910701660F0F
:107CB000771F7093070160930601A0910802B091AD
:107CC00009021097C9F0E8E0F1E09B01AD014E0F09
:107CD0005F1FF999FECF32BD21BD819180BDFA9A17
:107CE000F99A2F5F3F4FE417F50799F76A0F7B1F4B
:107CF00070930701609306018091C00085FFFCCF5F
:107D0000F092C6008091C00085FFFCCFB092C60003
:107D1000E1CE83E00E94C73CDDCE82E00E94C73CFA
:107D2000D9CE0E94763C809309020E94763C8093D3
:107D300008028091060190910701880F991F909386
:107D40000701809306010E94763C853409F4A6C0A1
:107D500080910C028E7F80930C020E94763C8032D0
:107D600009F0B8CE8091C00085FFFCCFF092C6002C
:107D7000609108027091090261157105B9F140E046
:107D800050E080910C02A82FA170B82FB27011C0E2
:107D9000BB2309F45CC0E0910601F0910701319624
:107DA000F0930701E09306014F5F5F4F46175707B7
:107DB000E8F4AA2369F3F999FECF209106013091E6
:107DC000070132BD21BDF89A90B58091C00085FFB2
:107DD000FCCF9093C6002F5F3F4F30930701209355
:107DE00006014F5F5F4F4617570718F38091C00099
:107DF00085FDE5CE8091C00085FFF8CFE0CE81E023
:107E00000E94C73C67CE0E94763C803209F08CCE3F
:107E10008091C00085FFFCCFF092C6008091C00029
:107E200085FFFCCFE092C6008091C00085FFFCCFAB
:107E3000D092C6008091C00085FFFCCFC092C600E2
:107E40008091C00085FFFCCFB092C60043CEE09188
:107E50000601F091070194918091C00085FFFCCF4D
:107E60009093C6009CCF80E10E94C73C33CE0E9415
:107E7000763C0E94763C182F0E94763C112309F430
:107E800083C0113009F484C08FE00E94C73C22CE29
:107E900080910C02816080930C02E5CE80910C02EF
:107EA000816080930C0259CF809107018823880F4D
:107EB000880B8A2180930B02809106019091070123
:107EC000880F991F90930701809306018091080203
:107ED00080FF09C080910802909109020196909359
:107EE000090280930802F894F999FECF1127E091D6
:107EF0000601F0910701C8E0D1E08091080290915D
:107F00000902103091F40091570001700130D9F34B
:107F100003E000935700E89500915700017001308D
:107F2000D9F301E100935700E89509901990009169
:107F3000570001700130D9F301E000935700E89534
:107F40001395103498F011270091570001700130FB
:107F5000D9F305E000935700E895009157000170B0
:107F60000130D9F301E100935700E895329602976A
:107F700009F0C7CF103011F00296E5CF112480919F
:107F8000C00085FFB9CEBCCE8EE10E94C73CA2CD19
:0C7F900085E90E94C73C9ECDF894FFCF0D
:027F9C00800063
:040000030000780081
:00000001FF