:100000000C9462000C948A000C948A000C948A0070
:100010000C948A000C948A000C948A000C948A0038
:100020000C948A000C948A000C948A000C949A0414
:100030000C948A000C948A000C948A000C948A0018
:100040000C9450040C948A000C9458030C943203C2
:100050000C948A000C948A000C948A000C948A00F8
:100060000C945B050C948A0000000008000201005B
:100070000003040700000000000000000000000072
:1000800023002600290004040404040404040202DA
:100090000202020203030303030301020408102007
:1000A0004080010204081020010204081020000012
:1000B0000000240027002A0000000000250028007E
:1000C0002B00CE0611241FBECFEFD8E0DEBFCDBF80
:1000D00011E0A0E0B1E0E2E8F7E102C005900D9286
:1000E000AE35B107D9F723E0AEE5B1E001C01D920E
:1000F000A430B207E1F710E0C2E6D0E004C02197D7
:10010000FE010E94B40BC136D107C9F70E945E07F9
:100110000C94BF0B0C940000EEE5F1E0A089B189CE
:1001200082E08C93A485B5851C92A685B7858FEC5B
:100130008C93108EA489B58986E08C93A289B389AB
:100140008C9180618C93A289B3898C9188608C9307
:10015000A289B3898C9180688C930288F389E02D01
:1001600080818F7D80830895AC01909188029C30BE
:1001700090F58091890228E830E0281B310987FD3D
:100180003395220F331F220F331F4217530784F07A
:1001900080918A0228E532E0281B310987FD3395DA
:1001A000220F331F220F331F421753070CF49A01FB
:1001B00022503109220F331F4FB7F894892F90E056
:1001C000FC01EE0FFF1F8E0F9F1FFC01E550FE4F3D
:1001D000328321834FBF0895CF92DF92EF92FF9237
:1001E000803222E092070CF03FC097FD06C0853BAD
:1001F00091052CF084EB90E002C080E090E020912B
:10020000890248E850E06A01C21AD10827FDD39458
:10021000CC0CDD1CCC0CDD1C0D2C000CEE08FF08FA
:1002200040918A0228E532E0241B310947FD3395CD
:10023000220F331F220F331FA901330F660B770BD9
:100240009A01AB012C193D094E095F09DC010E949E
:10025000910B24EB30E040E050E00E94670BC20EAF
:10026000D31EE41EF51EC601FF90EF90DF90CF90E5
:100270000C94B400CF92DF92EF92FF920F931F93F2
:10028000CF93DF936C017A018B01C0E0D0E0CE15F3
:10029000DF0589F0D8016D918D01D601ED91FC91BA
:1002A0000190F081E02DC6010995892B11F47E01A2
:1002B00002C02196ECCFC701DF91CF911F910F9122
:1002C000FF90EF90DF90CF9008958F929F92AF9222
:1002D000BF92CF92DF92EF92FF926B017C010E945E
:1002E00044044B015C01C60ED71EE81EF91E0E9495
:1002F0004404681579058A059B0528F0C616D706BB
:10030000E806F906A0F7FF90EF90DF90CF90BF903E
:10031000AF909F908F9008956115710579F0FB0162
:1003200001900020E9F73197AF01461B570BDC0124
:10033000ED91FC910280F381E02D099480E090E042
:1003400008954F925F926F927F92EF92FF920F9378
:100350001F93CF93DF93CDB7DEB7A1970FB6F89475
:10036000DEBF0FBECDBF7C01FA01CB0119A2223046
:1003700008F42AE08E010F5D1F4F422E512C612C94
:10038000712CBF01A30192010E94450BF901CA0122
:10039000015011096A3014F4605D01C0695CD80134
:1003A0006C93232B242B252B61F7B801C7010E94E6
:1003B0008C01A1960FB6F894DEBF0FBECDBFDF91C2
:1003C000CF911F910F91FF90EF907F906F905F9072
:1003D0004F9008950C948C01FC01538D448D252F72
:1003E00030E0842F90E0821B930B541710F0CF96CF
:1003F000089501970895FC01918D828D981761F001
:10040000828DDF01A80FB11D5D968C91928D9F5F4B
:100410009F73928F90E008958FEF9FEF0895FC01F6
:10042000918D828D981731F0828DE80FF11D858DA9
:1004300090E008958FEF9FEF0895FC01918D228D3C
:10044000892F90E0805C9F4F821B91098F739927C1
:1004500008958EE591E00E941D0221E0892B09F4A8
:1004600020E0822F0895FC01848DDF01A80FB11DCB
:10047000A35ABF4F2C91848D90E001968F739927DA
:10048000848FA689B7892C93A089B1898C918064C7
:100490008C93938D848D981306C00288F389E02D88
:1004A00080818F7D80830895EF92FF920F931F9339
:1004B000CF93DF93EC0181E0888F9B8D8C8D981317
:1004C00005C0E889F989808185FD24C0F62E0B8D51
:1004D00010E00F5F1F4F0F731127E02E8C8DE81275
:1004E0000CC00FB607FCFACFE889F989808185FF37
:1004F000F5CFCE010E943302F1CF8B8DFE01E80FC4
:10050000F11DE35AFF4FF0820B8FEA89FB8980814E
:10051000806207C0EE89FF896083E889F98980815C
:100520008064808381E090E0DF91CF911F910F91F3
:10053000FF90EF900895CF93DF93EC01888D88238F
:10054000C9F0EA89FB89808185FD05C0A889B98940
:100550008C9186FD0FC00FB607FCF5CF808185FF1B
:10056000F2CFA889B9898C9185FFEDCFCE010E9489
:100570003302E7CFDF91CF91089580E090E0892B9F
:1005800029F00E94290281110C940000089585ED44
:100590008093BC008091BC0084FDFCCF1092D402FB
:1005A00008954091AE02262F30E0240F311D2132F4
:1005B0003105DCF42091D4022430C9F4FC0180E040
:1005C00090E0861758F43091AE022191DC01A457D7
:1005D000BD4FA30FB11D2C930196F3CF8091AE02B6
:1005E000680F6093AE0280E0089581E0089582E094
:1005F000089508958FEF9FEF08958FEF9FEF08956F
:1006000080918B0290E09195819591090895CF9307
:10061000DF9300D0CDB7DEB7CB01642F49835A8377
:100620000E94D1024981842F5A81952F0F900F90FB
:10063000DF91CF910895CF93DF931F92CDB7DEB7AF
:10064000698361E0CE0101960E94D10281E090E0D1
:100650000F90DF91CF910895089580E090E0089584
:100660000E94BA0B1F920F920FB60F9211242F9374
:100670003F934F935F936F937F938F939F93AF932A
:10068000BF93EF93FF938EE591E00E943302FF91B9
:10069000EF91BF91AF919F918F917F916F915F91FA
:1006A0004F913F912F910F900FBE0F901F90189573
:1006B0001F920F920FB60F9211242F938F939F9337
:1006C000EF93FF93E0916E01F0916F018081E091D3
:1006D0007401F091750182FD12C0908180917701C3
:1006E0008F5F8F7320917801821751F0E09177012D
:1006F000F0E0E25AFE4F958F8093770101C0808130
:10070000FF91EF919F918F912F910F900FBE0F90BE
:100710001F901895833081F028F4813099F0823051
:10072000A1F008958730A9F08830B9F08430D1F471
:10073000809180008F7D03C0809180008F778093AF
:100740008000089584B58F7702C084B58F7D84BD05
:1007500008958091B0008F7703C08091B0008F7DA5
:100760008093B00008951F93CF93DF93282F30E03C
:10077000F901E859FF4F8491F901E656FF4FD491F2
:10078000F901EA57FF4FC491CC23C9F0162F81110C
:100790000E948A03EC2FF0E0EE0FFF1FE854FF4F9A
:1007A000A591B4918FB7F894111105C09C91ED2FCC
:1007B000E095E92302C0EC91ED2BEC938FBFDF9124
:1007C000CF911F910895CF93DF9390E0FC01E656FF
:1007D000FF4F2491FC01EA57FF4F8491882361F178
:1007E00090E0880F991FFC01E255FF4FC591D4910D
:1007F000FC01E854FF4FA591B491611109C09FB766
:10080000F8948881209582238883EC912E230BC055
:10081000623061F49FB7F8943881822F80958323EA
:100820008883EC912E2B2C939FBF06C08FB7F89432
:10083000E8812E2B28838FBFDF91CF9108953FB79A
:10084000F8948091000390910103A0910203B0916C
:10085000030326B5A89B05C02F3F19F00196A11DE3
:10086000B11D3FBFBA2FA92F982F8827820F911D46
:10087000A11DB11DBC01CD0142E0660F771F881F8D
:10088000991F4A95D1F708952FB7F8946091FC020B
:100890007091FD028091FE029091FF022FBF08959A
:1008A0001F920F920FB60F9211242F933F938F93A5
:1008B0009F93AF93BF938091FC029091FD02A09112
:1008C000FE02B091FF023091FB0223E0230F2D378F
:1008D00020F40196A11DB11D05C026E8230F029644
:1008E000A11DB11D2093FB028093FC029093FD0299
:1008F000A093FE02B093FF02809100039091010348
:10090000A0910203B09103030196A11DB11D809334
:10091000000390930103A0930203B0930303BF91DC
:10092000AF919F918F913F912F910F900FBE0F909C
:100930001F9018951F920F920FB60F9211242F93AC
:100940003F934F935F936F937F938F939F93AF9357
:10095000BF93EF93FF938091FA0287FF05C0109237
:100960008500109284001BC02091FA02022E000C18
:10097000330B80911F0290E02817390784F480918F
:10098000FA02082E000C990BFC01EE0FFF1F8E0FD0
:100990009F1FFC01E550FE4F808186FD15C08091B0
:1009A000FA028F5F8093FA022091FA02022E000C65
:1009B000330B80911F0290E028173907C4F480910F
:1009C000FA028C3064F113C08091FA02082E000CF8
:1009D000990BFC01EE0FFF1F8E0F9F1FFC01E550CE
:1009E000FE4F808160E08F730E94B303D8CF809167
:1009F000840090918500049680349C4918F480E42A
:100A00009CE905C0809184009091850004969093A4
:100A10008900809388008FEF8093FA023BC0209179
:100A20008400309185008091FA02082E000C990B09
:100A3000FC01EE0FFF1F8E0F9F1FFC01E550FE4FC4
:100A400081819281820F931F909389008093880007
:100A50008091FA02082E000C990BFC01EE0FFF1F8B
:100A60008E0F9F1FFC01E550FE4F808186FF12C054
:100A70008091FA02082E000C990BFC01EE0FFF1F6B
:100A80008E0F9F1FFC01E550FE4F808161E08F7348
:100A90000E94B303FF91EF91BF91AF919F918F910E
:100AA0007F916F915F914F913F912F910F900FBE6A
:100AB0000F901F9018951F920F920FB60F9211244E
:100AC0002F933F934F935F936F937F938F939F9356
:100AD000AF93BF93EF93FF938091B900887F8036E7
:100AE00009F49CC068F5883209F45BC090F4803149
:100AF00009F454C038F4882309F4F6C0883009F4A6
:100B00004DC0F6C0883109F44CC0803209F45DC094
:100B1000EFC0803409F468C048F4803309F455C04C
:100B2000883309F0E5C08093D302D8C0803509F43A
:100B30004FC0883509F45DC0883409F0D9C0D6C0EB
:100B4000883909F4C7C0A8F4883709F467C038F4B5
:100B5000883609F463C0803709F460C0C9C088389A
:100B600009F4B8C0803909F45FC0803809F0C0C00A
:100B70005BC0803B09F486C038F4803A09F466C053
:100B8000883A09F47FC0B4C0803C09F4A7C0883C0F
:100B900009F4A4C0883B09F48AC0AAC08091F90274
:100BA00010C09091F8028091F702981770F5E091CB
:100BB000F80281E08E0F8093F802F0E0E952FD4FD9
:100BC00080818093BB0085EC86C08093D3028EC069
:100BD000E091F80281E08E0F8093F8028091BB00D3
:100BE000F0E0E952FD4F80839091F8028091F70286
:100BF0006EC0E091F80281E08E0F8093F802809140
:100C0000BB00F0E0E952FD4F80838091D602811154
:100C10006DC081E08093D50284EA61C083E0809357
:100C2000D4021092D202CFCF8091D202803208F04B
:100C300051C0E091D20281E08E0F8093D202809168
:100C4000BB00F0E0EE54FD4F8083BDCF85EC809378
:100C5000BC001092D4028091D202803230F4E09134
:100C6000D202F0E0EE54FD4F10826091D20270E0AB
:100C7000E091B002F091B10282EB92E009951092FE
:100C8000D20236C084E08093D4021092AF02109258
:100C9000AE02E091AC02F091AD0209958091AE02F6
:100CA000811105C081E08093AE0210928C02E09128
:100CB000AF0281E08E0F8093AF02F0E0E457FD4F6A
:100CC00080818093BB009091AF028091AE02981713
:100CD00008F479CF85E88093BC000AC085EC809346
:100CE000BC001092D40204C01092D3020E94C7022A
:100CF000FF91EF91BF91AF919F918F917F916F91F4
:100D00005F914F913F912F910F900FBE0F901F90C9
:100D10001895CF92DF92EF92FF920F931F93E82FD7
:100D2000F92F05C0015011092109310961F19081A4
:100D300096239417B9F305C001501109210931090F
:100D400011F1908196239413F7CFC12CD12CE12C73
:100D5000F12C0AC08FEFC81AD80AE80AF80A0C1555
:100D60001D052E053F0579F080818623841791F3B8
:100D70006C2D7D2D8E2D9F2D1F910F91FF90EF904B
:100D8000DF90CF90089560E070E080E090E01F91E8
:100D90000F91FF90EF90DF90CF9008951092610136
:100DA0001092600188EE93E0A0E0B0E080936201D1
:100DB00090936301A0936401B093650124E031E056
:100DC00030935F0120935E0125EC30E030936B019E
:100DD00020936A0124EC30E030936D0120936C0184
:100DE00020EC30E030936F0120936E0121EC30E075
:100DF000309371012093700122EC30E03093730145
:100E00002093720126EC30E0309375012093740139
:100E100010927701109278011092790110927A0164
:100E200010923A0210923B0210923C0210923D0244
:100E300010923E0210923F02109240021092410224
:100E40001092420210924302109244021092450204
:100E500010924602109247021092480210924902E4
:100E600010927F0210927E02809380029093810202
:100E7000A0938202B093830286E191E090937D0279
:100E800080937C0280911F028C30A0F491E0980F37
:100E900090931F028093880290E0FC01EE0FFF1FE9
:100EA0008E0F9F1FFC01E550FE4F88EB9BE0928365
:100EB000818308958FEF809388020895789484B594
:100EC000826084BD84B5816084BD85B5826085BD46
:100ED00085B5816085BD80916E00816080936E00D4
:100EE00010928100809181008260809381008091C6
:100EF0008100816080938100809180008160809377
:100F000080008091B10084608093B1008091B00036
:100F100081608093B00080917A00846080937A0031
:100F200080917A00826080937A0080917A0081605B
:100F300080937A0080917A00806880937A00109282
:100F4000C100109278021092790210927A021092E7
:100F50007B021092360210923702109238021092E1
:100F6000390268EB7BE080E090E00E9465018EE54D
:100F700091E090937702809376020E948C000E9409
:100F80004404609336027093370280933802909342
:100F9000390264E271E080917602909177020E94BA
:100FA000EA016AE070E080E090E00E94650181E083
:100FB00080934A020E944404009136021091370245
:100FC00020913802309139026B017C01C01AD10A9C
:100FD000E20AF30A24E6C216D104E104F10408F49B
:100FE00070C00E944404609336027093370280936D
:100FF00038029093390266E371E080917602909115
:1010000077020E94EA016DE371E08091760290918F
:1010100077020E94EA016DE371E08091760290917F
:1010200077020E94EA016DE371E08091760290916F
:1010300077020E94EA016DE371E08091760290915F
:1010400077020E94EA016FE371E08091760290914D
:1010500077020E94EA016AE070E080E090E00E947E
:1010600065010E948C0061E085E00E94E30360E07E
:1010700086E00E94E303809188028C3008F072C001
:1010800061E082E00E94E30380918802E82FF0E0B3
:101090009F01220F331FE20FF31FE550FE4F908197
:1010A000907C926090831092890210928A026CE088
:1010B0000E94A80BACE08A9FB001112440E050E0F0
:1010C00024C00E9444044B015C01DC01CB018C195B
:1010D0009D09AE09BF096C017D0194E6C90ED11CC2
:1010E000E11CF11C0E944404681579058A059B05E2
:1010F00008F477CFC616D706E806F90698F771CF39
:101100004F5F5F4F4C30510579F09A01260F371F22
:10111000F901EE0FFF1F2E0F3F1FF901E550FE4FA3
:10112000908196FFEDCF11C081110FC01092800009
:1011300082E0809381001092850010928400B19A21
:1011400080916F00826080936F00E0918802F0E0F0
:10115000CF01880F991FE80FF91FE550FE4F8081DE
:10116000806480838CED95E00E94B40033E0232EF0
:10117000312CC7E3D0E04AE3442E512C612C712C72
:101180000E944404009130021091310220913202F9
:1011900030913302DC01CB01801B910BA20BB30B0E
:1011A00086399105A105B10508F4B8C00E94440430
:1011B0006093300270933102809332029093330235
:1011C00061E070E080E090E00E9465010E944404CC
:1011D00060933602709337028093380290933902FD
:1011E00066E371E080917602909177020E94EA01B5
:1011F0006DE371E080917602909177020E94EA019E
:10120000C12CD12C760100E010E080E0002E01C05E
:10121000880F0A94EAF7182B0F5F083031F0EDE0E1
:10122000CE16D104E104F104A9F4412F50E060E0AE
:1012300070E02AE080917602909177020E94A101ED
:1012400061E571E080917602909177020E94EA0157
:1012500000E010E061E070E080E090E00E94650155
:10126000FFEFCF1ADF0AEF0AFF0A2EE0C216D10401
:10127000E104F10439F1B1E0CB16D104E104F10449
:1012800021F2F601E859FF4F8491F601E656FF4F2F
:10129000B490F601EA57FF4FA490AA2009F4B5CF05
:1012A00081110E948A03EA2DF0E0EE0FFF1FE4583F
:1012B000FF4FA591B491EC919E2F9B2109F4A5CFEE
:1012C00081E0A4CF61E070E080E090E00E946501E1
:1012D0006DE371E080917602909177020E94EA01BD
:1012E0006DE371E080917602909177020E94EA01AD
:1012F0006DE371E080917602909177020E94EA019D
:101300006FE371E080917602909177020E94EA018A
:1013100061E070E080E090E00E9465010E9444047A
:10132000672B682B692B41F40E94440462307105DD
:101330008105910508F40EC10E94440460932C02BB
:1013400070932D0280932E0290932F020091280219
:101350001091290220912A0230912B026017710707
:101360008207930740F460932802709329028093C8
:101370002A0290932B0200912802109129022091B9
:101380002A0230912B026B017C01C01AD10AE20AB9
:10139000F30A970186010A3F11052105310508F47A
:1013A000D9C0609328027093290280932A029093F7
:1013B0002B0284EF91E0A0E0B0E080934202909392
:1013C0004302A0934402B093450210924602109249
:1013D0004702109248021092490280913A0290917D
:1013E0003B02A0913C02B0913D0280933E0290935B
:1013F0003F02A0934002B09341020E9444046093D4
:101400003A0270933B0280933C0290933D020E940B
:1014100044046093360270933702809338029093AD
:1014200039020E9444046B017C0168E471E0809100
:101430007602909177020E94EA012AE041E050E0B2
:1014400060E070E080917602909177020E94A101A5
:101450006FE471E080917602909177020E94EA0138
:101460002AE0B701A60180917602909177020E944E
:10147000A10161E571E080917602909177020E946E
:10148000EA0180913A0290913B02A0913C02B09116
:101490003D02B701A601481B590B6A0B7B0B2AE0E2
:1014A00080917602909177020E94A10161E571E03E
:1014B00080917602909177020E94EA0140913A026F
:1014C00050913B0260913C0270913D0280913E023E
:1014D00090913F02A0914002B0914102481B590BEC
:1014E0006A0B7B0B2AE080917602909177020E9432
:1014F000A1016DE371E080917602909177020E94E4
:10150000EA010E944404AB01BC012AE0809176020A
:10151000909177020E94A101E0907602F09077020C
:1015200063E571E0C7010E948C0165E471E0C701C9
:101530000E948C0165E070E080E090E00E9465010F
:101540000E94440460933A0270933B0280933C02F1
:1015500090933D0260E085E00E94B303C1010197D2
:10156000F1F761E085E00E94B303CE010197F1F746
:1015700060E085E00E94B303E0EAF0E06491ECE80B
:10158000F0E08491E82FF0E0EE0FFF1FE458FF4FEA
:101590008591949100E412E42FE030E0462F0E9400
:1015A0008906611571058105910549F0DC01CB01C2
:1015B0000196A11DB11DBC01CD019F7003C060E06B
:1015C00070E0CB0160932402709325028093260281
:1015D00090932702A30192010E94670BBA01A9010F
:1015E00040932002509321026093220270932302C1
:1015F0002AE08EE591E00E94A1016AE571E08EE5A6
:1016000091E00E948C0165E471E08EE591E00E941A
:101610008C018091200290912102A0912202B09130
:1016200023020F97A105B1051CF480E090E002C0F1
:101630008EE690E00E94EC000E941F044B015C01CA
:1016400084E6C82ED12CE12CF12C0E941F04DC0171
:10165000CB0188199909AA09BB09883E9340A105C5
:10166000B10558F0F1E0CF1AD108E108F10828EEF1
:10167000820E23E0921EA11CB11CC114D104E1040E
:10168000F10419F70E94BD027BCDA1E21A2EAA1B1C
:10169000BB1BFD010DC0AA1FBB1FEE1FFF1FA21722
:1016A000B307E407F50720F0A21BB30BE40BF50B1F
:1016B000661F771F881F991F1A9469F760957095A8
:1016C000809590959B01AC01BD01CF010895052E39
:1016D00097FB1EF400940E947E0B57FD07D00E94DA
:1016E000450B07FC03D04EF40C947E0B50954095AF
:1016F000309521953F4F4F4F5F4F089590958095BE
:10170000709561957F4F8F4F9F4F08950E94990B61
:10171000A59F900DB49F900DA49F800D911D112445
:101720000895B7FF0C94860B0E94860B821B930BC7
:101730000895A29FB001B39FC001A39F700D811DAA
:101740001124911DB29F700D811D1124911D0895CA
:10175000991B79E004C0991F961708F0961B881F03
:101760007A95C9F780950895EE0FFF1F0590F491C3
:10177000E02D099481E090E0F8940C94BF0BF8946C
:02178000FFCF99
:101782000000000054023A01EC019B021D02FB0121
:101792000F02000000001B0307032D03F9020003E0
:1017A200FD02FA02564D4450565F317C315F564D70
:1017B2004450560D0A00564D4450525F007C005F63
:1017C200564D4450520D0A00564D4450455F003A62
:0E17D200323A005F564D44504500636D0000F2
:00000001FF
